:100000000C9424010C9443010C94D1010C944101F3
:100010000C94B0020C945F020C9441010C944101C9
:100020000C9441010C9441010C9441010C94410148
:100030000C9441010C9441010C94FD020C9441017B
:100040000C9441010C9441010C9441010C94410128
:100050000C9441010C9441010C9441010C94410118
:100060000C9441010C944101000000000000005F6D
:1000700000000007000700147F147F14242A7F2A41
:10008000122313086462364955225000050300000C
:10009000001C2241000041221C0014083E081408E4
:1000A000083E0808005030000008080808080060F2
:1000B00060000020100804023E5149453E00427F86
:1000C000400042615149462141454B311814127F8D
:1000D0001027454545393C4A494930017109050316
:1000E0003649494936064949291E0036360000007E
:1000F0005636000008142241001414141414004150
:100100002214080201510906324979413E7E11113B
:10011000117E7F494949363E414141227F4141227A
:100120001C7F494949417F090909013E4149497AF2
:100130007F0808087F00417F41002040413F017F48
:10014000081422417F404040407F020C027F7F0420
:1001500008107F3E4141413E7F090909063E415159
:10016000215E7F09192946464949493101017F012C
:10017000013F4040403F1F2040201F3F4038403F4C
:100180006314081463070870080761514945430068
:100190007F41410002040810200041417F00040219
:1001A0000102044040404040000102040020545439
:1001B00054787F48444438384444442038444448C0
:1001C0007F3854545418087E0901020C5252523E92
:1001D0007F0804047800447D40002040443D007FB7
:1001E0001028440000417F40007C041804787C08FB
:1001F00004047838444444387C1414140808141453
:10020000187C7C080404084854545420043F44409B
:10021000203C4040207C1C2040201C3C4030403C86
:1002200044281028440C5050503C4464544C440022
:100230000836410000007F00000041360800100829
:10024000081008000000000011241FBECFEFD8E006
:10025000DEBFCDBF11E0A0E0B1E0E0E6FFE102C00B
:1002600005900D92AE33B107D9F723E0AEE3B1E0CC
:1002700001C01D92AA34B207E1F70E944A070C940C
:10028000AE0F0C9400001F920F9200905F000F922F
:1002900011242F933F934F935F936F937F938F938B
:1002A0009F93AF93BF93EF93FF93CF93DF93CDB71C
:1002B000DEB780913E01882F90E08230910571F188
:1002C000833091052CF4009749F00197B9F052C0A2
:1002D0008330910581F10497D9F14CC080914001A0
:1002E000882331F4809140018F5F8093400142C0A8
:1002F000809140018150809340013CC08091430136
:10030000882331F4809143018F5F8093430132C091
:10031000809143018150809343012CC08091000162
:100320008F5F80930001809100018A30F1F481E0B9
:10033000809300011AC0809102018F5F80930201B7
:10034000809102018A3099F481E0809302010FC00C
:10035000809101018F5F80930101809101018A30BA
:1003600041F481E08093010104C0000003C000005B
:1003700001C000000E94E2040000DF91CF91FF91D4
:10038000EF91BF91AF919F918F917F916F915F910D
:100390004F913F912F910F9000925F000F901F900F
:1003A00018951F920F9200905F000F9211242F93C7
:1003B0003F934F935F936F937F938F939F93AF93ED
:1003C000BF93EF93FF93CF93DF93CDB7DEB78091C9
:1003D0003E01882F90E08230910571F183309105C4
:1003E0002CF4009749F00197B9F052C08330910581
:1003F00081F10497D9F14CC080914001813031F4F2
:100400008091400181508093400142C08091400121
:100410008F5F809340013CC080914301813031F473
:100420008091430181508093430132C08091430108
:100430008F5F809343012CC0809100018150809395
:100440000001809100018823F1F481E08093000194
:100450001AC08091020181508093020180910201B3
:10046000882399F481E0809302010FC080910101FB
:1004700081508093010180910101882341F481E042
:100480008093010104C0000003C0000001C000000F
:100490000E94E2040000DF91CF91FF91EF91BF91A4
:1004A000AF919F918F917F916F915F914F913F910C
:1004B0002F910F9000925F000F901F9018951F9240
:1004C0000F9200905F000F9211242F933F934F9350
:1004D0005F936F937F938F939F93AF93BF93EF93AC
:1004E000FF93CF93DF93CDB7DEB789E290E0FC01B5
:1004F0008081882F90E080719927892B59F4809111
:100500003E018F5F80933E0180913E01853011F462
:1005100010923E010E94E20489E290E0FC01808199
:10052000882F90E082709927892B29F480914201CD
:100530008F5F809342010000DF91CF91FF91EF9197
:10054000BF91AF919F918F917F916F915F914F91EB
:100550003F912F910F9000925F000F901F90189580
:100560001F920F9200905F000F9211242F933F93E0
:100570004F935F936F937F938F939F93AF93BF93AB
:10058000EF93FF93CF93DF93CDB7DEB786E290E092
:10059000FC018081882F90E080749927892BC1F419
:1005A000809141018F5F80934101809148018130AA
:1005B00079F490914101892F880F890F880F880F56
:1005C0008093440110924101109248010E94E2047C
:1005D0000000DF91CF91FF91EF91BF91AF919F917B
:1005E0008F917F916F915F914F913F912F910F90DC
:1005F00000925F000F901F9018951F920F9200902D
:100600005F000F9211242F933F934F935F936F934B
:100610007F938F939F93AF93BF93EF93FF93CF936A
:10062000DF93CDB7DEB780914C0190914D01A09141
:100630004E01B0914F010196A11DB11D80934C0157
:1006400090934D01A0934E01B0934F0180914001D2
:10065000813069F580914C0190914D01A0914E013E
:10066000B0914F0128E833E140E050E0BC01CD01FA
:100670000E94830CDC01CB01892B8A2B8B2B19F474
:1006800081E0809348019091440189E8989F812DF1
:1006900011248295869587708F5F809300018091E9
:1006A00000019AE0292F281B822F8093010180915D
:1006B0004C0190914D01A0914E01B0914F0124EF5A
:1006C00031E040E050E0BC01CD010E94830CDC0130
:1006D000CB01892B8A2B8B2B99F581E080934901E3
:1006E00089E290E0FC018081882F90E08074992756
:1006F000892B19F481E080934A0188E790E0FC019E
:10070000808191819C0140E050E088E19CE9AFE06C
:10071000B0E0BC01CD010E94A50CDA01C901885EE0
:100720009340A109B1098C329140A105B10524F48F
:1007300081E080934B0104C088E490E0FC011082CA
:1007400080914301813009F091C080913F01843054
:1007500068F580914C0190914D01A0914E01B091AE
:100760004F0120910001622F70E04AE451E0649F44
:100770009001659F300D749F300D1124032E000CE5
:10078000440B550BBC01CD010E94830CDC01CB0155
:10079000892B8A2B8B2B09F0F3C080913F018F5F4F
:1007A00080933F0181E080934501EAC080913F0141
:1007B000843069F580914C0190914D01A0914E01DA
:1007C000B0914F0120910201622F70E048EE53E09A
:1007D000649F9001659F300D749F300D1124032E8E
:1007E000000C440B550BBC01CD010E94830CDC01B5
:1007F000CB01892B8A2B8B2B09F0C2C080913F0142
:100800008F5F80933F0181E080934601B9C0809162
:100810003F01853008F4B4C080914C0190914D01A6
:10082000A0914E01B0914F0120910101422F50E063
:1008300065EA649F9001659F300D1124032E000C22
:10084000440B550BBC01CD010E94830CDC01CB0194
:10085000892B8A2B8B2B09F093C080913F018F5FEE
:1008600080933F0181E0809347018AC080913F01DE
:10087000843050F580914C0190914D01A0914E0132
:10088000B0914F0120910001422F50E06AEF649F28
:100890009001659F300D1124032E000C440B550B65
:1008A000BC01CD010E94830CDC01CB01892B8A2B7A
:1008B0008B2B09F065C080913F018F5F80933F01D2
:1008C00081E0809345015CC080913F01843061F5F7
:1008D00080914C0190914D01A0914E01B0914F013A
:1008E00020910201622F70E048EE53E0649F900176
:1008F000659F300D749F300D1124032E000C440BA6
:10090000550BBC01CD010E94830CDC01CB01892B6E
:100910008A2B8B2BA9F580913F018F5F80933F013C
:1009200081E0809346012CC080913F01853040F1E9
:1009300080914C0190914D01A0914E01B0914F01D9
:1009400020910101422F50E06AEF649F9001659F62
:10095000300D1124032E000C440B550BBC01CD01AE
:100960000E94830CDC01CB01892B8A2B8B2B41F459
:1009700080913F018F5F80933F0181E08093470129
:1009800080914201882349F080913F01843018F41E
:1009900084E080933F01109242010000DF91CF91EB
:1009A000FF91EF91BF91AF919F918F917F916F9147
:1009B0005F914F913F912F910F9000925F000F90A8
:1009C0001F901895CF93DF93CDB7DEB7CD56D109E1
:1009D0000FB6F894DEBF0FBECDBF0E94D109809143
:1009E0004001882331F461E083E091E00E94040B30
:1009F00005C061E08BE091E00E94040B809143010F
:100A0000882351F46AE080E00E94270B61E083E1D3
:100A100091E00E94040B09C06AE080E00E94270B6D
:100A200061E087E191E00E94040B64E180E00E94B4
:100A3000270B61E08DE191E00E94040B6EE180E004
:100A40000E94270B61E083E291E00E94040B68E2C0
:100A500080E00E94270B61E089E291E00E94040B94
:100A600080910001882F90E0292F2F938F938FE2A0
:100A700091E0892F8F938FE291E08F93CE010196C1
:100A80009F938F930E94C40C0F900F900F900F9024
:100A90000F900F9064E183E20E94270B61E0CE018A
:100AA00001960E94040B80910201882F90E0292F6B
:100AB0002F938F938FE291E0892F8F938FE291E0B4
:100AC0008F93CE010496292F2F938F930E94C40CED
:100AD0000F900F900F900F900F900F906EE183E2A8
:100AE0000E94270BCE01049661E00E94040B8091C6
:100AF0000101882F90E0292F2F938F938FE291E0AF
:100B0000892F8F938FE291E08F93CE010796292F43
:100B10002F938F930E94C40C0F900F900F900F9003
:100B20000F900F9068E283E20E94270BCE01079698
:100B300061E00E94040B80914401882F90E0292FEE
:100B40002F938F938FE291E0892F8F938FE291E023
:100B50008F93CE010A96292F2F938F930E94C40C56
:100B60000F900F900F900F900F900F9060E085E323
:100B70000E94270BCE010A9662E00E94040B6FE0F0
:100B800085E30E94270B61E082E391E00E94040B61
:100B900080913E01882F90E08230910511F18330E1
:100BA00091052CF4009749F0019789F038C0833003
:100BB000910509F1049749F132C060E08DE20E948D
:100BC000270B61E088E391E00E94040B28C06AE0F3
:100BD0008DE20E94270B61E088E391E00E94040B04
:100BE0001EC064E18DE20E94270B61E088E391E082
:100BF0000E94040B14C06EE18DE20E94270B61E09D
:100C000088E391E00E94040B0AC068E28DE20E9432
:100C1000270B61E088E391E00E94040B00000E9432
:100C20003A0B0000C359DF4F0FB6F894DEBF0FBE7A
:100C3000CDBFDF91CF910895CF93DF93CDB7DEB7CE
:100C400080914B018823D1F180914A01813021F0BC
:100C500080914101882351F088E490E02FEFFC015E
:100C6000208310924A011092410105C088E490E06F
:100C70002DE4FC0120838BE290E02EE7FC01208331
:100C800080913F01843031F48BE290E02EEFFC0143
:100C9000208312C080913F01853071F480913F0123
:100CA000853028F08BE290E02FE7FC01208385E27D
:100CB00090E020EFFC01208310924B010000DF91B7
:100CC000CF910895CF93DF93CDB7DEB7C656D10944
:100CD0000FB6F894DEBF0FBECDBF9E012B593F4F1C
:100CE000F90191838083CE018B599F4FFC01808154
:100CF0009181FC018081882309F44EC088E790E04F
:100D0000FC01808191819C0140E050E088E19CE9F8
:100D1000AFE0B0E0BC01CD010E94A50CDA01C90131
:100D2000885E9340A109B1092B2F2F932A2F2F936F
:100D3000292F2F938F938FE291E0892F8F938FE24A
:100D400091E08F93CE0101969F938F930E94C40CE4
:100D50008DB79EB708960FB6F894DEBF0FBECDBF15
:100D600069E185E30E94270B62E0CE0101960E94B3
:100D7000040B68E287E30E94270B61E08AE391E0BD
:100D80000E94040B0E943A0BCE018B599F4FFC012D
:100D900080819181FC0110820000CA59DF4F0FB69B
:100DA000F894DEBF0FBECDBFDF91CF910895CF93F2
:100DB000DF93CDB7DEB780910001882349F480919D
:100DC0000101882329F480910201882309F45CC081
:100DD000809145018823E1F08BE290E02EE5FC0153
:100DE000208385E290E025E230E0F901208126951C
:100DF000FC0120831092450180913F018430B9F5B8
:100E00008BE290E02EEDFC012083109246012FC072
:100E100080914601813089F480913F01853069F4E9
:100E20008BE290E02FE5FC01208385E290E020EF4B
:100E3000FC012083109246011AC08091470188234B
:100E4000B1F085E290E025E230E0F9012081220F47
:100E5000FC0120831092470180913F01893039F4D1
:100E600085E290E02FE0FC01208310923F01809109
:100E70003F01853048F080914B01813029F08BE2B1
:100E800090E02FE5FC0120830E941C060000DF910A
:100E9000CF910895CF93DF93CDB7DEB784E290E092
:100EA0002FEFFC0120838AE290E021EEFC012083F9
:100EB00087E290E02EEBFC0120838BE290E02EE1B4
:100EC000FC01208388E290E020E4FC01208389E695
:100ED00090E02AE0FC0120838DE390E023E0FC0118
:100EE000208388E690E026E0FC0120838DE690E0F8
:100EF00022E1FC0120838CE690E020E4FC012083C9
:100F000084E490E023EAFC01208385E490E023E080
:100F1000FC01208388E490E02DE4FC01208387E439
:100F200090E029EFFC0120838EE690E022E0FC01B6
:100F300020838CE790E020E4FC0120838AE790E0A6
:100F400027EEFC0120838BE790E0FC0110828EE706
:100F500090E0FC011082789485E290E02FE0FC01A3
:100F600020830E9451080E94E2040E94D70689E46F
:100F700091E00E946206F9CF1F93CF93DF9300D0D8
:100F8000CDB7DEB789836A8388E290E028E230E05B
:100F9000F9012081277FFC0120838A81882351F079
:100FA00088E290E028E230E0F90120812460FC0131
:100FB000208309C088E290E028E230E0F901208136
:100FC0002B7FFC01208310E03CC08981882F90E0BA
:100FD000212F30E047E050E0BA01621B730B9B0108
:100FE00002C0959587952A95E2F781709927892BFC
:100FF00051F088E290E028E230E0F901208122609F
:10100000FC01208309C088E290E028E230E0F90189
:1010100020812D7FFC01208388E290E028E230E0EF
:10102000F90120812062FC01208388E290E028E21F
:1010300030E0F90120812F7DFC012083812F11E018
:10104000180F183010F288E290E028E230E0F90141
:1010500020812860FC01208300000F900F90DF9119
:10106000CF911F910895CF93DF931F92CDB7DEB735
:10107000898360E089810E94BC0700000F90DF91A6
:10108000CF910895CF93DF931F92CDB7DEB78983B9
:1010900061E089810E94BC0700000F90DF91CF9131
:1010A00008950F931F93CF93DF93CDB7DEB76C975F
:1010B0000FB6F894DEBF0FBECDBF87E290E027E207
:1010C00030E0F90120812860FC01208387E290E074
:1010D00027E230E0F90120812061FC01208387E2D2
:1010E00090E027E230E0F90120812460FC012083B8
:1010F00087E290E027E230E0F90120812260FC01E4
:10110000208387E290E027E230E0F901208120622D
:10111000FC01208388E290E028E230E0F9012081A0
:101120002061FC01208388E290E028E230E0F901B0
:1011300020812860FC01208380E090E0A0E2B1E4FF
:1011400089839A83AB83BC8320E030E04AE753E491
:1011500069817A818B819C810E94E20BDC01CB0149
:101160008B8B9C8BAD8BBE8B20E030E040E85FE347
:101170006B897C898D899E890E945C0B88232CF465
:1011800081E090E0988F8F8B3FC020E03FEF4FE7EA
:1011900057E46B897C898D899E890E94DD0B181626
:1011A0004CF520E030E040E251E469817A818B81A6
:1011B0009C810E94E20BDC01CB01BC01CD010E94AD
:1011C000610BDC01CB01988F8F8B0FC089E190E020
:1011D0009A8F898F898D9A8D0197F1F79A8F898FD0
:1011E0008F89988D0197988F8F8B8F89988D892BF8
:1011F00069F714C06B897C898D899E890E94610B77
:10120000DC01CB01988F8F8B8F89988D9C8F8B8F72
:101210008B8D9C8D0197F1F79C8F8B8F88E290E0EE
:1012200028E230E0F90120812F7EFC01208380E05C
:1012300090E0ACE8B2E48D839E83AF83B88720E072
:1012400030E04AE753E46D817E818F8198850E946A
:10125000E20BDC01CB0189879A87AB87BC8720E052
:1012600030E040E85FE369857A858B859C850E9444
:101270005C0B88232CF481E090E09E878D873FC033
:1012800020E03FEF4FE757E469857A858B859C85A1
:101290000E94DD0B18164CF520E030E040E251E4EE
:1012A0006D817E818F8198850E94E20BDC01CB01EC
:1012B000BC01CD010E94610BDC01CB019E878D87B3
:1012C0000FC089E190E0988B8F878F85988901976F
:1012D000F1F7988B8F878D859E8501979E878D87E7
:1012E0008D859E85892B69F714C069857A858B85E4
:1012F0009C850E94610BDC01CB019E878D878D85CB
:101300009E859A8B898B89899A890197F1F79A8BA7
:10131000898B88E290E028E230E0F90120812061A9
:10132000FC01208388E290E028E230E0F90120818E
:10133000277FFC01208381E20E94330883E10E9421
:10134000330886E00E94330882EC0E94330880E272
:101350000E94330889E00E94330880E80E94330825
:1013600080E40E94330800E010E005C080E00E94A5
:1013700042080F5F1F4F083FF1E01F07B8F388E0F6
:101380000E9433088CE00E94330800006C960FB670
:10139000F894DEBF0FBECDBFDF91CF911F910F91AB
:1013A00008950F931F93CF93DF93CDB7DEB780E8F7
:1013B0000E94330880E40E94330810924803109280
:1013C000490300E010E007C0C801805B9E4FFC01AC
:1013D00010820F5F1F4F083FF1E01F07A8F30000C6
:1013E000DF91CF911F910F910895CF93DF9300D09C
:1013F00000D01F92CDB7DEB78B836C834D838C8179
:10140000869586958695882F90E044E5489F9001C3
:10141000499F300D11248B81882F90E0820F931FFC
:10142000805B9E4F9A8389838D818823C9F089814F
:101430009A81FC018081482F8C81882F90E09C014B
:101440002770332781E090E002C0880F991F2A950A
:10145000E2F7842B282F89819A81FC01208319C00F
:1014600089819A81FC018081482F8C81882F90E0AE
:101470009C012770332781E090E002C0880F991FFC
:101480002A95E2F780958423282F89819A81FC018F
:10149000208300000F900F900F900F900F90DF911E
:1014A000CF9108950F931F93CF93DF9300D000D077
:1014B0001F92CDB7DEB78C836D8310E065C000E06E
:1014C0004EC08C81882F90E09C01205231099D8173
:1014D000812F692F0E94770C482F50E0C901880F97
:1014E000991F880F991F820F931F840F951F88598A
:1014F0009F4F9A83898389819A81FC0184918B8390
:101500008B81282F30E09D81802F692F0E94770CDE
:10151000882F90E0A90102C0559547958A95E2F77A
:10152000CA0181709927892B61F080914903982F16
:10153000900F80914803810F41E0692F0E94F509C7
:101540000BC080914903982F900F80914803810F21
:1015500040E0692F0E94F509802F01E0080F402F1D
:1015600050E08D81282F30E0C901880F991F880F26
:10157000991F880F991F821B930B481759070CF46A
:10158000A0CF812F11E0180F412F50E08D81282F1F
:1015900030E0C901880F991F880F991F820F931F90
:1015A000481759070CF48BCF209148039D81892F50
:1015B000880F880F890F820F8F5F80934803809177
:1015C0004803843570F010924803209149039D81AF
:1015D000892F880F880F880F891B820F8F5F809358
:1015E000490380914903803320F010924803109200
:1015F000490300000F900F900F900F900F90DF9114
:10160000CF911F910F910895CF93DF9300D01F9238
:10161000CDB7DEB79A8389836B830CC089819A81A9
:101620009C012F5F3F4F3A832983FC0180816B81AE
:101630000E94520A89819A81FC018081882371F776
:1016400000000F900F900F90DF91CF910895CF93EE
:10165000DF9300D0CDB7DEB789836A838981809319
:1016600048038A818093490300000F900F90DF9117
:10167000CF9108950F931F93CF93DF93CDB7DEB72C
:1016800080E80E94330880E40E94330800E010E004
:1016900009C0C801805B9E4FFC0180810E94420806
:1016A0000F5F1F4F083FF1E01F0798F30000DF9125
:1016B000CF911F910F9108950E94900B08F481E043
:1016C00008950E94BC0B88F09F5798F0B92F992776
:1016D000B751B0F0E1F0660F771F881F991F1AF01D
:1016E000BA95C9F714C0B13091F00E94D60BB1E0A1
:1016F00008950C94D60B672F782F8827B85F39F0A0
:10170000B93FCCF3869577956795B395D9F73EF4B5
:1017100090958095709561957F4F8F4F9F4F08955D
:10172000990F0008550FAA0BE0E8FEEF16161706F2
:10173000E807F907C0F012161306E407F50798F05A
:10174000621B730B840B950B39F40A2661F0232B73
:10175000242B252B21F408950A2609F4A140A695EF
:101760008FEF811D811D089557FD9058440F551F1F
:1017700059F05F3F71F04795880F97FB991F61F013
:101780009F3F79F087950895121613061406551F8A
:10179000F2CF4695F1DF08C0161617061806991FF6
:1017A000F1CF86957105610508940895E894BB27EB
:1017B00066277727CB0197F908950E94900B08F4CC
:1017C0008FEF08950E94F50B0C94660C0E94580C44
:1017D00038F00E945F0C20F0952311F00C944F0C10
:1017E0000C94550C11240C94D70B0E94B40B70F37D
:1017F000959FC1F3950F50E0551F629FF001729FB6
:10180000BB27F00DB11D639FAA27F00DB11DAA1FC4
:10181000649F6627B00DA11D661F829F2227B00D11
:10182000A11D621F739FB00DA11D621F839FA00D9C
:10183000611D221F749F3327A00D611D231F849FEC
:10184000600D211D822F762F6A2F11249F57504043
:101850009AF0F1F088234AF0EE0FFF1FBB1F661FBE
:10186000771F881F91505040A9F79E3F510580F087
:101870000C944F0C0C94D70B5F3FE4F3983ED4F3D9
:10188000869577956795B795F795E7959F5FC1F72B
:10189000FE2B880F911D9695879597F9089597F9D6
:1018A0009F6780E870E060E008959FEF80EC089506
:1018B00000240A941616170618060906089500242F
:1018C0000A9412161306140605060895092E0394A9
:1018D000000C11F4882352F0BB0F40F4BF2B11F41D
:1018E00060FF04C06F5F7F4F8F4F9F4F0895991B1C
:1018F00079E004C0991F961708F0961B881F7A9507
:10190000C9F780950895A1E21A2EAA1BBB1BFD0101
:101910000DC0AA1FBB1FEE1FFF1FA217B307E407CE
:10192000F50720F0A21BB30BE40BF50B661F771F26
:10193000881F991F1A9469F7609570958095909506
:101940009B01AC01BD01CF010895052E97FB1EF44C
:1019500000940E94BC0C57FD07D00E94830C07FC2A
:1019600003D04EF40C94BC0C5095409530952195C5
:101970003F4F4F4F5F4F08959095809570956195BB
:101980007F4F8F4F9F4F0895AEE0B0E0EAECFCE050
:101990000C94850F0D891E8986E08C831A83098338
:1019A0008FEF9FE79E838D83AE01475E5F4F6F8908
:1019B000788DCE0101960E94E60CEF81F885E00F4C
:1019C000F11F10822E96E4E00C94A10FABE0B0E082
:1019D000ECEEFCE00C94770F6C017B018A01FC01BA
:1019E00017821682838181FFCCC1CE0101963C0112
:1019F000F6019381F70193FD859193FF81917F011A
:101A0000882309F4BAC1853239F493FD859193FF97
:101A100081917F01853229F4B60190E00E94DD0EAC
:101A2000E7CF912C212C312CFFE1F315D8F08B322C
:101A300079F038F4803279F08332A1F4232D2061DB
:101A40001DC08D3261F0803369F4232D216016C0F2
:101A5000832D8260382EE32DE4603E2E2AC0F32DC4
:101A6000F8601DC037FC2DC020ED280F2A3040F053
:101A70008E32B9F436FC81C1232D2064322E19C078
:101A800036FE06C08AE0989E200D1124922E11C0C9
:101A9000EAE02E9E200D1124222EF32DF0623F2E1F
:101AA00008C08C3621F4832D8068382E02C0883619
:101AB00041F4F70193FD859193FF81917F0181119D
:101AC000B3CF982F9F7D9554933028F40C5F1F4F10
:101AD0009FE399830DC0833631F0833771F08335EE
:101AE00009F059C021C0F801808189830E5F1F4F22
:101AF00088248394912C530113C02801F2E04F0EE7
:101B0000511CF801A080B18036FE03C0692D70E041
:101B100002C06FEF7FEFC5010E94D20E4C0182011F
:101B2000F32DFF773F2E16C0280122E0420E511CF4
:101B3000F801A080B18036FE03C0692D70E002C0BC
:101B40006FEF7FEFC5010E94C70E4C01F32DF068C7
:101B50003F2E820133FC1BC0822D90E0881699062F
:101B6000B0F4B60180E290E00E94DD0E2A94F4CF3A
:101B7000F50137FC859137FE81915F01B60190E058
:101B80000E94DD0E21102A9421E0821A910881140E
:101B9000910471F7E8C0843611F0893641F5F801F7
:101BA00037FE07C060817181828193810C5F1F4F76
:101BB00008C060817181072E000C880B990B0E5FA5
:101BC0001F4FF32DFF763F2E97FF09C0909580950C
:101BD000709561957F4F8F4F9F4FF0683F2E2AE0A1
:101BE00030E0A3010E94190F882E861845C0853762
:101BF00031F4232D2F7EB22E2AE030E025C0932D24
:101C0000997FB92E8F36C1F018F4883579F0B5C0B8
:101C1000803719F0883721F0B0C0E92FE061BE2E7F
:101C2000B4FE0DC0FB2DF460BF2E09C034FE0AC007
:101C3000292F2660B22E06C028E030E005C020E142
:101C400030E002C020E132E0F801B7FE07C0608159
:101C50007181828193810C5F1F4F06C06081718109
:101C600080E090E00E5F1F4FA3010E94190F882EA5
:101C70008618FB2DFF773F2E36FE0DC0232D2E7FBD
:101C8000A22E891458F434FE0BC032FC09C0832DF7
:101C90008E7EA82E05C0B82CA32C03C0B82C01C082
:101CA000B92CA4FE0FC0FE01E80DF11D8081803328
:101CB00021F49A2D997EA92E09C0A2FE06C0B394E4
:101CC000B39404C08A2D867809F0B394A3FC11C0A4
:101CD000A0FE06C0B21488F4280C922C9B180EC0EB
:101CE000B21460F4B60180E290E00E94DD0EB3947D
:101CF000F7CFB21418F42B1802C0982C212CA4FE94
:101D000010C0B60180E390E00E94DD0EA2FE17C075
:101D1000A1FC03C088E790E002C088E590E0B6012E
:101D20000CC08A2D867859F0A1FE02C08BE201C05A
:101D300080E2A7FC8DE2B60190E00E94DD0E8914DE
:101D400038F4B60180E390E00E94DD0E9A94F7CF5C
:101D50008A94F301E80DF11D8081B60190E00E94A4
:101D6000DD0E8110F5CF222009F442CEB60180E2CB
:101D700090E00E94DD0E2A94F6CFF60186819781CD
:101D800002C08FEF9FEF2B96E2E10C94930FFC01C2
:101D90000590615070400110D8F7809590958E0F96
:101DA0009F1F0895FC016150704001900110D8F709
:101DB000809590958E0F9F1F08950F931F93CF933B
:101DC000DF93FB01238121FD03C08FEF9FEF2CC028
:101DD00022FF16C04681578124813581421753075F
:101DE00044F4A081B1819D012F5F3F4F3183208357
:101DF0008C93268137812F5F3F4F3783268314C012
:101E00008B01EC01FB010084F185E02D0995892B04
:101E1000E1F6D80116968D919C9117970196179629
:101E20009C938E931697CE01DF91CF911F910F91C6
:101E30000895FA01AA27283051F1203181F1E89460
:101E40006F936E7F6E5F7F4F8F4F9F4FAF4FB1E0AD
:101E50003ED0B4E03CD0670F781F891F9A1FA11DA8
:101E6000680F791F8A1F911DA11D6A0F711D811DA9
:101E7000911DA11D20D009F468943F912AE0269F6E
:101E800011243019305D3193DEF6CF010895462FCD
:101E90004770405D4193B3E00FD0C9F7F6CF462FAE
:101EA0004F70405D4A3318F0495D31FD4052419317
:101EB00002D0A9F7EACFB4E0A695979587957795D4
:101EC0006795BA95C9F700976105710508959B015B
:101ED000AC010A2E06945795479537952795BA95E4
:101EE000C9F7620F731F841F951FA01D08952F92BD
:101EF0003F924F925F926F927F928F929F92AF929A
:101F0000BF92CF92DF92EF92FF920F931F93CF93E6
:101F1000DF93CDB7DEB7CA1BDB0B0FB6F894DEBF7D
:101F20000FBECDBF09942A88398848885F846E84A3
:101F30007D848C849B84AA84B984C884DF80EE80ED
:101F4000FD800C811B81AA81B981CE0FD11D0FB6F6
:101F5000F894DEBF0FBECDBFED010895F894FFCF1A
:101F60000101014D6F646F204D2E004D6F646F2095
:101F7000412E00446961004E6F69746500566572B8
:101F8000646500416D617265005665726D6500257E
:0E1F90007500432F4D696E003C004C757800C3
:00000001FF
